:040000000C94460016
:100004000C9400000C9400000C9400000C9400006C
:100014000C9400000C9400000C9400000C9400005C
:100024000C9400000C9400000C9400000C9400004C
:100034000C9400000C9400000C9400000C9400003C
:100044000C9400000C9400000C9400000C9400002C
:100054000C9400000C9400000C9400000C9400001C
:100064000C9400000C9400000C9400000C9400000C
:100074000C9400000C9400000C9400000C940000FC
:100084000C9400000C940000F894EE27ECBBF1E013
:10009400F5BFE5BFE0936C008DE0A2E0BB27ED93D4
:1000A4008A95E9F780E090E1A0E0B1E0ED93019753
:1000B400E9F7EFEFEDBFE0E1EEBFC0E0D5E00C946F
:1000C4006300EFEFE4BBE0E0E5BBA8EEB3E00E9421
:1000D4007000E5B3E095E5BBF8CFFFCF109639F09B
:1000E400A8958AEF90E00197F1F71197C9F7089561
:00000001FF
